{
  "contractName": "TodoList",
  "abi": [
    {
      "anonymous": false,
      "inputs": [
        {
          "indexed": false,
          "internalType": "uint256",
          "name": "id",
          "type": "uint256"
        },
        {
          "indexed": false,
          "internalType": "string",
          "name": "content",
          "type": "string"
        },
        {
          "indexed": false,
          "internalType": "bool",
          "name": "isComplete",
          "type": "bool"
        }
      ],
      "name": "TodoCreated",
      "type": "event"
    },
    {
      "anonymous": false,
      "inputs": [
        {
          "indexed": false,
          "internalType": "uint256",
          "name": "id",
          "type": "uint256"
        },
        {
          "indexed": false,
          "internalType": "bool",
          "name": "isComplete",
          "type": "bool"
        }
      ],
      "name": "markTodoState",
      "type": "event"
    },
    {
      "constant": true,
      "inputs": [],
      "name": "todoCount",
      "outputs": [
        {
          "internalType": "uint256",
          "name": "",
          "type": "uint256"
        }
      ],
      "payable": false,
      "stateMutability": "view",
      "type": "function"
    },
    {
      "constant": true,
      "inputs": [
        {
          "internalType": "uint256",
          "name": "",
          "type": "uint256"
        }
      ],
      "name": "todos",
      "outputs": [
        {
          "internalType": "uint256",
          "name": "id",
          "type": "uint256"
        },
        {
          "internalType": "string",
          "name": "content",
          "type": "string"
        },
        {
          "internalType": "bool",
          "name": "isComplete",
          "type": "bool"
        }
      ],
      "payable": false,
      "stateMutability": "view",
      "type": "function"
    },
    {
      "constant": false,
      "inputs": [
        {
          "internalType": "string",
          "name": "_content",
          "type": "string"
        }
      ],
      "name": "createTodo",
      "outputs": [],
      "payable": false,
      "stateMutability": "nonpayable",
      "type": "function"
    },
    {
      "constant": false,
      "inputs": [
        {
          "internalType": "uint256",
          "name": "_id",
          "type": "uint256"
        }
      ],
      "name": "toggleTodoState",
      "outputs": [],
      "payable": false,
      "stateMutability": "nonpayable",
      "type": "function"
    }
  ],
  "bytecode": "0x60806040526000805534801561001457600080fd5b506106d5806100246000396000f3fe608060405234801561001057600080fd5b506004361061004c5760003560e01c806329839a8914610051578063bc8bc2b41461007f578063e34f122114610138578063fe0dee17146101f3575b600080fd5b61007d6004803603602081101561006757600080fd5b8101908080359060200190929190505050610211565b005b6100ab6004803603602081101561009557600080fd5b81019080803590602001909291905050506103be565b604051808481526020018060200183151515158152602001828103825284818151815260200191508051906020019080838360005b838110156100fb5780820151818401526020810190506100e0565b50505050905090810190601f1680156101285780820380516001836020036101000a031916815260200191505b5094505050505060405180910390f35b6101f16004803603602081101561014e57600080fd5b810190808035906020019064010000000081111561016b57600080fd5b82018360208201111561017d57600080fd5b8035906020019184600183028401116401000000008311171561019f57600080fd5b91908080601f016020809104026020016040519081016040528093929190818152602001838380828437600081840152601f19601f82011690508083019250505050505050919291929050505061048d565b005b6101fb6105d2565b6040518082815260200191505060405180910390f35b6102196105d8565b6001600083815260200190815260200160002060405180606001604052908160008201548152602001600182018054600181600116156101000203166002900480601f0160208091040260200160405190810160405280929190818152602001828054600181600116156101000203166002900480156102da5780601f106102af576101008083540402835291602001916102da565b820191906000526020600020905b8154815290600101906020018083116102bd57829003601f168201915b505050505081526020016002820160009054906101000a900460ff1615151515815250509050806040015115816040019015159081151581525050806001600084815260200190815260200160002060008201518160000155602082015181600101908051906020019061034f9291906105fb565b5060408201518160020160006101000a81548160ff0219169083151502179055509050507f38ec232f049516680e4fee3dd2544c46d98b0f44ddf339cf520a47ca24c9247282826040015160405180838152602001821515151581526020019250505060405180910390a15050565b6001602052806000526040600020600091509050806000015490806001018054600181600116156101000203166002900480601f0160208091040260200160405190810160405280929190818152602001828054600181600116156101000203166002900480156104705780601f1061044557610100808354040283529160200191610470565b820191906000526020600020905b81548152906001019060200180831161045357829003601f168201915b5050505050908060020160009054906101000a900460ff16905083565b6000808154809291906001019190505550604051806060016040528060005481526020018281526020016000151581525060016000805481526020019081526020016000206000820151816000015560208201518160010190805190602001906104f89291906105fb565b5060408201518160020160006101000a81548160ff0219169083151502179055509050507f216b7b554cc6be0fbaed756f9b62e83e41a91839dc1556b845c14d0f67036646600054826000604051808481526020018060200183151515158152602001828103825284818151815260200191508051906020019080838360005b83811015610593578082015181840152602081019050610578565b50505050905090810190601f1680156105c05780820380516001836020036101000a031916815260200191505b5094505050505060405180910390a150565b60005481565b604051806060016040528060008152602001606081526020016000151581525090565b828054600181600116156101000203166002900490600052602060002090601f016020900481019282601f1061063c57805160ff191683800117855561066a565b8280016001018555821561066a579182015b8281111561066957825182559160200191906001019061064e565b5b509050610677919061067b565b5090565b61069d91905b80821115610699576000816000905550600101610681565b5090565b9056fea265627a7a7231582086de5f60cb4b2e6a0fb026021e6eb8d0bc537da68eef287cbb46d8d6bb50ebd564736f6c63430005100032",
  "source": "// SPDX-License-Identifier: MIT\r\npragma solidity >=0.4.21 <0.7.0;\r\n\r\ncontract TodoList {\r\n    // constructor() public {\r\n    //     createTodo(\"complete eth-react-Todo application till 1 PM, today\");\r\n    // }\r\n\r\n    struct Todo {\r\n        uint256 id;\r\n        string content;\r\n        bool isComplete;\r\n    }\r\n    uint256 public todoCount = 0;\r\n\r\n    mapping(uint256 => Todo) public todos;\r\n\r\n    event TodoCreated(uint256 id, string content, bool isComplete);\r\n\r\n    event markTodoState(uint256 id, bool isComplete);\r\n\r\n    function createTodo(string memory _content) public {\r\n        todoCount ++;\r\n        todos[todoCount] = Todo(todoCount, _content, false);\r\n        emit TodoCreated(todoCount, _content, false);\r\n    }\r\n\r\n    function toggleTodoState(uint256 _id) public {\r\n        Todo memory _todo = todos[_id];\r\n        _todo.isComplete = !_todo.isComplete;\r\n        todos[_id] = _todo;\r\n        emit markTodoState(_id, _todo.isComplete);\r\n    }\r\n}\r\n",
  "sourcePath": "G:/Blockchain Developement/eth-react-todo-app/contracts/TodoList.sol",
  "compiler": {
    "name": "solc",
    "version": "0.5.16+commit.9c3226ce.Emscripten.clang"
  },
  "schemaVersion": "3.4.1",
  "updatedAt": "2021-07-21T14:05:40.017Z",
  "networkType": "ethereum",
  "devdoc": {
    "methods": {}
  },
  "userdoc": {
    "methods": {}
  }
}